:020000040800F2
:100000000004002029040008433400084334000899
:1000100043340008433400084334000843340008E4
:100020004334000843340008433400081D560008D8
:100030004334000843340008C1550008B557000890
:1000400043340008433400084334000843340008B4
:1000500043340008433400084334000843340008A4
:100060004334000843340008433400084334000894
:100070004334000843340008433400084334000884
:100080004334000843340008433400084334000874
:100090004334000843340008433400084334000864
:1000A00043340008490A0008290A000843340008BC
:1000B0004334000843340008433400084334000844
:1000C0004334000843340008433400084334000834
:1000D0004334000843340008433400084334000824
:1000E0004334000843340008433400084334000814
:1000F0004334000843340008433400084334000804
:1001000043340008433400084334000843340008F3
:1001100043340008433400084334000843340008E3
:1001200043340008433400084334000843340008D3
:1001300043340008433400084334000843340008C3
:10014000433400084334000843340008575700087C
:1001500043340008433400084334000843340008A3
:100160004334000843340008433400084334000893
:100170000348044B834202D0034B03B11847704736
:10018000201800202018002000000000064B07491E
:10019000C91A891048BF0131491003D0044B0BB173
:1001A00001481847704700BF201800202018002081
:1001B0000000000010B5064C237843B9FFF7D8FFC4
:1001C000044B13B10448AFF300800123237010BD2A
:1001D00038170020000000002865000808B5054B0E
:1001E0001BB105490548AFF30080BDE80840FFF7A3
:1001F000CDBF00BF000000000004002028650008FB
:10020000A3F5803A704700BF174B002B08BF134B74
:100210009D46FFF7F5FF00218B460F461348144A11
:10022000121A03F042FB0E4B002B00D098470D4BE7
:10023000002B00D098470020002104000D000D483D
:10024000002802D00C48AFF3008003F0A3F8200090
:10025000290003F0E8FA03F08BF800BF0000080063
:100260000000000000000000000400200004002046
:10027000E0170020000000000000000013B5104B44
:10028000012201930F4B4FF47A7100930E48002323
:1002900004F0C8FF0D4C20600D4803F04EF92468AF
:1002A00004F042FB4FF0FF3302460093012100238C
:1002B000204605F023F84FF47A7004F09DFCFAE72D
:1002C000F0060020D5020008B85B00081C070020DB
:1002D000385C0008014803F033B900BF385C0008FF
:1002E0001FB50B4BA02202930A4B0B49019301232C
:1002F0000A480093002304F0D1F930B9542108488A
:1003000005B05DF804EB03F0AAB805B05DF804FB96
:100310001804002070040020C35B00087D02000860
:10032000C95B0008F7B5104E104F304603F09EF839
:1003300090B104F0F9FA0546304603F097F8044608
:1003400070B904F0F1FA4FF0FF33421B009304211F
:100350002346386804F0D2FF642004F04DFCE4E743
:100360000A2004F049FCE7E7085C00081C070020AD
:100370001FB50B4BA02202930A4B0B49019301239B
:100380000A480093002304F089F930B9572108483E
:1003900005B05DF804EB03F062B805B05DF804FB4E
:1003A0002007002078070020D75B000825030008FD
:1003B000E25B000808B5044803F053F8BDE80840C4
:1003C000024803F04EB800BF085C0008F05B00086C
:1003D00008B5044803F0AEF8BDE80840024803F051
:1003E000A9B800BF385C0008205C000808B50348C5
:1003F00005F03FF9BDE8084003F003B810610008BC
:10040000014805F036B900BF106100080348044AEE
:100410000449121A921003F015B800BF70010008C9
:1004200070010008E017002008B5154B83F30A8817
:1004300000F030F8FFF7EAFF124B13498B4212D35A
:100440000020124B12498B4218D3FFF7DDFE1868CB
:1004500050F82240586840F82240013298688242A1
:10046000F5D30C33EAE70022F8E71C6844F82200D1
:1004700001325C68A242F8D30833E4E70022F8E7CF
:1004800000000020306500083C6500083C6500085D
:100490003C6500084FF48041124B134A70B59A60D6
:1004A000D3F88820114D42F47002C3F88820104A16
:1004B00005F5005491664FF0FF3222660D4A6266E0
:1004C0000222C3F8D020BFF34F8FBFF36F8F4FF4DA
:1004D0004036002002F040FA0020E66002F00AFAFE
:1004E0002E6170BD00ED00E00000000800800044B7
:1004F00000900050F7FF3700014B1860704700BFB5
:10050000E4170020054B1860054B1B6F03F0070331
:10051000032B01D103F004BA704700BFEC17002091
:100520000080005030B5056887B0AB8804461E488F
:10053000ADF80C3005F09DF80022012103A800F071
:1005400083F80DF10B0103A800F04AF99DF80B3078
:1005500083F001032B70AB79022B19D14FF0FF33DD
:100560000022CDE904330094104B04A903A800F045
:10057000FFF9049B009401330C4B0CD1042205A914
:1005800003A800F05FF918B16F21094802F067FF76
:10059000002007B030BD012205A903A800F052F9E0
:1005A0000028F5D07E21F0E71061000879340008BA
:1005B000505C00082DE9F04104460C254FF001087D
:1005C000124E0CB314F001000BD0002024F00104F3
:1005D00005FB00625768002FF3D09168C0B2B8479E
:1005E000EFE72246013020284FEA520201D0D3071C
:1005F000F8D508FA00F20F2824EA0204E8D91038E6
:1006000005FB0062B432E5E7BDE8F081F80900209F
:1006100008B50C4805F02DF8192002F085F928B12D
:10062000192002F099F9192002F064F91A2002F059
:100630007BF928B11A2002F08FF91A2002F05AF93A
:10064000002008BD106100082DE9F0410E469046DB
:10065000044638B993211A4802F001FF22252846A2
:10066000BDE8F0810F290CD8037883B1012B03D0AA
:10067000022B0CD0032B04D13F236278D340DB073D
:1006800008D497210E4802F0EAFE2125E7E740F260
:10069000FF33F2E70B4BD3F810532DB19B210848E1
:1006A00002F0DDFE0225DAE704F0D8FF07464246F5
:1006B0002046314601F0B4FD384604F0CAFFCEE7CB
:1006C000B45C000800C0035038B5044628B913488C
:1006D000E42102F0C4FE222038BD037883B1012B4F
:1006E00003D0022B0CD0032B04D13F236278D340DC
:1006F000DB0708D40948E82102F0B1FE2120EBE72E
:1007000040F2FF33F2E704F0A9FF0546204603F06C
:10071000A7F9284604F09DFF0020DDE7B45C00083F
:1007200038B5044628B91448FC2102F098FE22206E
:1007300038BD03788BB1012B03D0022B0DD0032BD6
:1007400004D13F236278D340DB0709D40A484FF431
:10075000807102F084FE2120EAE740F2FF33F1E7E6
:1007600004F07CFF0546204601F07EFC284604F09C
:1007700070FF0020DCE700BFB45C000870B50D46D8
:10078000044600B131B9154840F22D1102F067FE60
:10079000222070BD03788BB1012B03D0022B0DD02A
:1007A000032B04D13F236278D340DB0709D40B48E5
:1007B00040F2311102F053FE2120EAE740F2FF330C
:1007C000F1E704F04BFF0646204601F0A3FC287039
:1007D000304604F03EFF0020DBE700BFB45C0008B9
:1007E00070B50D46044600B131B915484FF4A371F8
:1007F00002F035FE222070BD03788BB1012B03D0AF
:10080000022B0DD0032B04D13F236278D340DB07AA
:1008100009D40B484FF4A57102F021FE2120EAE72C
:1008200040F2FF33F1E704F019FF0646204601F0DD
:1008300045FC2870304604F00CFF0020DBE700BFC9
:10084000B45C00082DE9F0410D4616469846044672
:1008500000B139B92F484FF4E07102F000FE2220B8
:10086000BDE8F081027872B1012A19D0022A0AD0BB
:10087000032A15D0FF2A0CD04FF4E271254802F06C
:10088000EEFD2120ECE740F2FF336278D340DA0737
:10089000F2D5022E07D9042E05D04FF4E471EDE70E
:1008A0003F236278F2E704F0D9FE23780746FF2B56
:1008B00005D032462046296801F01AFD28602B68D1
:1008C000013309D12378FF2B06D1134B6078D3F87D
:1008D000241402F0B1FE286029684B1C14D00C23AC
:1008E0000E4A03FB0122069BC2F804809360237822
:1008F000FF2B04D001230A4A8B40C2F82434384627
:1009000004F0A7FE0020ABE7384604F0A2FE2D203D
:10091000A6E700BFB45C000800C00350F80900203F
:1009200000D003500F2810B5044606D90D4840F2F8
:10093000F11102F094FD212010BD04F08FFE01237F
:10094000094AA340C2F82034C2F824340C22074BD1
:1009500002FB04330024C3E9014404F07AFE20467C
:10096000EAE700BFB45C000800E00350F80900208B
:100970002DE9F0410D4690461F46044600B139B9B5
:1009800026484FF40B7102F06AFD2220BDE8F08189
:10099000017871B1012938D002290AD0032934D055
:1009A000FF290CD01D4840F2312102F058FD2120D2
:1009B000ECE740F2FF336278D340DA07F2D504F077
:1009C0004DFE23780646FF2B05D042462046296877
:1009D00001F07EFD28602A68531C19D00C231049B1
:1009E00003FB0211069BC1F8B870C1F8BC30237834
:1009F000FF2B05D00123103293400A4AC2F8243459
:100A0000304604F026FE0020C0E73F236278D3E79B
:100A1000304604F01EFE2D20B8E700BFB45C00088D
:100A2000F809002000D0035008B501F09FFB054BEA
:100A300000F0553020F05020C3F82004BDE80840F5
:100A4000FFF7B8BD00E0035008B501F08FFB054B80
:100A500000F0AA3020F0A020C3F82004BDE8084030
:100A6000FFF7A8BD00E0035013B504460A4804F0A0
:100A700000FEA2780421B2FA82F2237852098DF89E
:100A8000043063780DEB01008DF80530FFF7DCFDD5
:100A9000002002B010BD00BF10610008044BD3F865
:100AA0008420D206FBD4D3F88400C0F381107047B1
:100AB0000040005038B5104B0546D3F800310C46C5
:100AC00003F00303022B0BD0032B0DD0012B0FD10E
:100AD00002F040FF032305B1286004B1236038BD54
:100AE00002F08AFF0923F6E702F03AFF0823F2E753
:100AF00001230020EFE700BF0080005038B5104B05
:100B00000546D3F840310C4603F00303022B0BD00B
:100B1000032B0DD0012B0FD104F08CFD0A2305B15E
:100B2000286004B1236038BD02F066FF0923F6E7B0
:100B300004F083FD0C23F2E701230020EFE700BF60
:100B40000080005038B5104B0546D3F860310C4694
:100B500003F00303022B0BD0032B0DD0012B0FD17D
:100B600004F068FD0A2305B1286004B1236038BD94
:100B700002F042FF0923F6E704F05FFD0C23F2E7E1
:100B800001230020EFE700BF0080005038B5104B74
:100B90000546D3F840320C4603F00303022B0BD07A
:100BA000032B0DD0012B0FD104F044FD0A2305B116
:100BB000286004B1236038BD02F01EFF0923F6E768
:100BC00004F03BFD0C23F2E701230020EFE700BF18
:100BD0000080005038B5124B0546D3F880300C46E3
:100BE00003F00303022B0BD0032B0DD0012B0FD1ED
:100BF00002F076FE0E2305B1286004B1236038BDF3
:100C000002F0B2FE0723F6E702F064FE0623F2E7E5
:100C1000044841F2142102F022FC00231846EAE7BE
:100C2000008000500D5D000838B51A4B0546D3F81A
:100C300020010C4600F00700062821D8DFE800F06C
:100C400028040C1410181C0002F044FE052305B102
:100C5000286004B1236038BD02F07CFE0323F6E770
:100C600002F082FE0723F2E702F070FE0223EEE7B5
:100C700002F030FE0623EAE702F06CFE0423E6E70A
:100C8000054841F2912102F0EAFB00231846DEE715
:100C90000123DCE7008000500D5D000838B5194BDA
:100CA0000546D3F828310C4603F00703013B052B1A
:100CB00020D8DFE803F003131B0F0B1702F00AFE26
:100CC000052305B1286004B1236038BD02F002FE9F
:100CD0000623F6E702F048FE0723F2E702F03AFEA9
:100CE0000323EEE702F036FE0423EAE702F02EFECD
:100CF0000223E6E7044841F2990102F0B0FB002329
:100D00001846DEE7008000500D5D0008002337B56F
:100D10000193194B0546D3F820320C4603F0070324
:100D2000042B1FD8DFE803F025030F14190000215E
:100D300001A8FFF7B3FF12230DB1019A2A6004B195
:100D4000236003B030BD02F00FFE07230190F3E7EC
:100D500004F070FC0A230190EEE702F04DFE092337
:100D60000190E9E741F25601044802F078FB0023C4
:100D7000E2E70123E0E700BF008000500D5D0008BE
:100D8000F7B50027144B0197D3F88041064604F0CD
:100D90000304022C0D4614D0032C0DD0012C14D1C9
:100DA000394601A8FFF740FF10240EB1019B3360C4
:100DB00005B12C6003B0F0BD02F0D6FD0724019010
:100DC000F3E702F0C3FD0190EFE741F2E63103489B
:100DD00002F045FB3C46E8E7008000500D5D00084E
:100DE00038B5164B0546D3F800020C4600F0070054
:100DF000042819D8DFE800F020030B0F130004F0DB
:100E000019FC0A2305B1286004B1236038BD02F043
:100E1000F3FD0923F6E704F010FC0C23F2E702F0DF
:100E20007FFD0F23800AEDE7054841F2A44102F05F
:100E300016FB00231846E5E70123E3E70080005096
:100E40000D5D000838B5164B0546D3F808020C4670
:100E500000F00700042819D8DFE800F020030B0F8A
:100E6000130004F0E7FB0A2305B1286004B12360F6
:100E700038BD02F0C1FD0923F6E704F0DEFB0C23C8
:100E8000F2E702F04DFD0F23800AEDE7054841F23D
:100E9000DC4102F0E4FA00231846E5E70123E3E72A
:100EA000008000500D5D0008002337B50193184BFA
:100EB0000546D3F860320C4603F00703013B032BD1
:100EC0001FD8DFE803F0020E1914002101A8FFF774
:100ED000ABFE10230DB1019A2A6004B1236003B068
:100EE00030BD002101A8FFF709FE1123F2E702F04F
:100EF0003BFD07230190EDE702F028FD022301905E
:100F0000E8E741F2FD01034802F0A9FA0023E1E716
:100F1000008000500D5D0008002337B50193184B89
:100F20000546D3F894320C4603F00703013B032B2C
:100F30001FD8DFE803F0020E1914002101A8FFF703
:100F400073FE10230DB1019A2A6004B1236003B02F
:100F500030BD002101A8FFF7D1FD1123F2E702F017
:100F600003FD07230190EDE702F0F0FC022301905E
:100F7000E8E741F23011034802F071FA0023E1E79B
:100F8000008000500D5D000873B500240F4B0194E4
:100F9000D3F87032064603F00303012B0D4607D049
:100FA000022B11D041F25B11094802F058FA04E01B
:100FB000214601A8FFF7A2FD11240EB1019B336069
:100FC00005B12C6002B070BD1524F6E7008000501A
:100FD0000D5D000808B5334B98424FD027D8324BEF
:100FE000984245D017D8314B98423ED00AD838B1F4
:100FF0002F4B984239D041F2BB312E4802F02FFAE4
:10100000002034E02C4B98422FD02C4B9842F2D148
:101010002B4B586E2BE02B4B98422CD003F53713FB
:1010200003F5D8639842E6D1254B986F1FE0264B15
:1010300098422FD00CD8254B984223D0244B98426D
:1010400024D0244B9842D6D11D4BD3F884000EE017
:10105000214B984222D003F5740303F510539842B4
:10106000C9D1174BD3F8980001E0154B986D08BD16
:10107000134B186FFBE7124B586FF8E7104BD3F880
:101080008000F4E70E4BD3F88800F0E70C4BD3F860
:101090008C00ECE70A4BD3F89000E8E7084BD3F854
:1010A0009400E4E780BA8C01405DC60080841E0095
:1010B00040420F000D5D000800093D00C0CF6A00EE
:1010C0000080E00F0024F400007E560380D5430228
:1010D000006CDC020048E8010090D003B0F5207FEE
:1010E00010B52ED009D8B0F5007F24D003D868B150
:1010F000B0F5C07F0AD000241BE0B0F5607FFAD1C4
:10110000124BD3F88040C4F3011412E00F4B1C6F54
:10111000230B13F00E0FC4F303340AD0072C08D0AE
:101120000F2C06D0032C04D04FF42271084802F093
:1011300096F9601C10BD054BD3F89040C4F30464CD
:10114000F7E7024B1C6FC4F38024F2E700800050E5
:101150000D5D00084FF4803238B5104B04469A6696
:1011600000200D46FFF7BAFF41F671320C4B604389
:10117000DC69DA635A6804F4803422F440125DB901
:101180000849884294BF00200120000502435A60AC
:101190000CB10022DA6338BD0349F2E70090005039
:1011A00000000350005A6202002D3101002130B5C9
:1011B000B0F5807F85B00446CDE9001100F0D38002
:1011C0003DD85E2833D85E2833D8DFE800F04832B7
:1011D00032323232323232323232323232323232EF
:1011E000323232323232323232323232323248AD4E
:1011F00048ADBDBDBDBDBDADC7516EDD51ADADADE1
:101200003232323232323232ADADAD81E7AD3232CE
:101210003232323232323232323232BD484848E231
:101220005151EC9066C232323232329848008028F6
:101230006AD040F2A441604802F011F967E0B0F5CD
:10124000D06F00F0A18035D8B0F5607F77D01AD884
:10125000B0F5007F5ED005D8B0F5C07FE9D102F0CF
:101260005FFB53E0B0F5207F5ED0B0F5407FE0D16A
:1012700002F056FB04464FF42070FFF72FFFB4FB3B
:10128000F0F4640859E0B0F5B06F67D00AD8B0F553
:10129000806F59D0B0F5A06FCBD100216846FFF721
:1012A00035FD34E0B0F5C06FC3D100216846FFF7CB
:1012B00025FC2CE0B0F5106F6BD00ED8B0F5086FA0
:1012C00076D0B6D8B0F5E06F68D0B0F5F06FB0D199
:1012D00000216846FFF736FC19E0B0F5406F38D0C2
:1012E0000AD8B0F5206F5ED0B0F5286FA1D10021EB
:1012F0006846FFF749FE0AE0B0F5486F99D1002132
:101300006846FFF709FE02E002F0EAFA0090009852
:1013100005B030BD02F0E4FA05462046FFF7DEFED8
:10132000B5FBF0F50095F2E702F0FAFA04464FF447
:101330002070FFF7D3FEB4FBF0F40094E7E701A8B8
:10134000FFF748FC019DE8E700216846FFF76CFCC9
:10135000DDE700216846FFF7A1FCD8E700216846D9
:10136000FFF70EFDD3E74FF0E02302911B695B0707
:1013700005D502F0D5FA0290029B0093C7E703A9B6
:1013800002A8FFF7BBFBF7E700216846FFF728FD3F
:10139000BDE700216846FFF755FDB8E70021684624
:1013A000FFF7F4FBB3E700216846FFF77DFDAEE7EA
:1013B0006846FFF77FFBAAE70D5D000808B58020AF
:1013C000FFF7F4FE034B98429EBF4FF48032024B6E
:1013D0001A6708BD005A620200A000501FB50346FC
:1013E0000020B3F5807F019000F0C58063D85D2BAD
:1013F00054D84C2B06D82D2B46D8232B2AD840F274
:101400008951A7E04D3B102BF9D801A252F823F0E7
:101410006D150008FF130008FF130008FF130008F4
:1014200017150008FF130008FF130008C715000870
:1014300035150008DB140008BD150008FF1300086F
:10144000FF130008FF130008FF130008FF13000834
:10145000D1150008243B092BD1D801A252F823F062
:101460006D1500086D1500086D1500086D15000854
:101470006D150008FF1300085D150008FF13000834
:10148000F7140008A31500083D2B00F085803E2BC3
:10149000B5D1002001A9FFF779FB63E0802BAED125
:1014A0004E4B1B6F03F00703013B032B50D8DFE8C3
:1014B00003F04D46494BB3F5F06F6DD020D8B3F52E
:1014C000B06F4BD00ED8B3F5607F73D097D3B3F520
:1014D000806F4BD0B3F5A06F91D1002001A9FFF729
:1014E00015FC3FE0B3F5D06F5BD0B3F5E06FD0D023
:1014F000B3F5C06F83D1002001A9FFF7FFFA31E0F7
:10150000B3F5206F5FD00BD8B3F5086F4ED0B3F5AD
:10151000106F7FF474AF002001A9FFF793FC21E066
:10152000B3F5406F4AD0B3F5486F51D0B3F5286F8B
:101530007FF465AF002001A9FFF726FD12E0052327
:1015400001930FE00323FBE70823F9E70223F7E702
:1015500040F2D641224801F082FF03E0002001A9B9
:10156000FFF70EFC019805B05DF804FB002001A90F
:10157000FFF75AFBF6E74FF0E02302901B695B0789
:1015800005D502F0CDF90D230393039BD8E703A9FA
:1015900002A8FFF7B3FAF8E7002001A9FFF7D2FA93
:1015A000E0E7002001A9FFF71BFCDBE701A9FFF73B
:1015B00081FAD7E701A9FFF70DFBD3E7002001A9C6
:1015C000FFF76CFBCEE7002001A9FFF76DFCC9E730
:1015D000002001A9FFF7A0FCC4E700BF0080005075
:1015E0000D5D00084FF48032074B0849586E03F533
:1015F00080535A664B6A23F001034B62C3035CBFFE
:10160000034B5A66704700BF0080005000C007506F
:1016100000A0005038B5036804460F2B04D940F6EB
:101620008A317C4801F01BFF63680F2B04D940F618
:101630008D31784801F013FFA3680F2B04D94FF4C4
:101640003961744801F00BFF237B0F2B04D940F65E
:101650009331704801F003FF637B0F2B04D940F6F0
:1016600096316C4801F0FBFEA37B3F2B04D940F67A
:101670009931684801F0F3FEE37B3F2B04D940F633
:101680009C31644801F0EBFE2369032B04D940F63A
:101690009F31604801F0E3FE6369032B04D940F6F3
:1016A000A2315C4801F0DBFEE369032B04D940F66C
:1016B000A531584801F0D3FE8020FFF78FFE0328A4
:1016C00000F083804FF48012534B4FF0A0615A66B4
:1016D00045F60E02514BC3F88020514A91624FF4F7
:1016E000803102F5805291629A6DD203FCD4996DDB
:1016F00011F08041FBD1D4E90002120542EA0062F8
:10170000E07B0243207B42EA0042607B42EA0032F7
:10171000A07B42EA80121A619869D4E90452120649
:1017200042EA856200F000400243A07EE57E02436B
:10173000207E42EA0042607E42EA00229A611A6AF2
:10174000E06922F00F0242EA8502364D00283DD1C1
:101750001A6294F82420996A94F82000D200294053
:1017600042EA40120A4394F8211042EA011242F47C
:1017700080329A622C49294A936D31EA0303FBD1E6
:101780004FF08071264881621369A56823F47003C5
:1017900043EA055313614FF00043836194F822300C
:1017A0000BB9224B996294F823303BB94FF4803245
:1017B0001E4B9A62194A936D5B00FCD494F8253055
:1017C0001BB1164B1A4AC3F8802038BD024342F0C1
:1017D000080202281A6208D119614FF4085299616F
:1017E00014484FF47F4101F0F4FE0C4994F8223084
:1017F0008A6A94F820001B062A4043EA40131343E8
:1018000094F8242043EAC20394F8232043EA0243D5
:101810008B62D3E70D5D0008009000500040005A35
:101820000050005AC7FFFEFE030001000060005A8E
:10183000F1A7FFFF3440005A014B93F900007047B5
:1018400012180020436810B5072B044604D940F64F
:10185000E6512A4801F003FEA368032B04D940F6A1
:10186000E851264801F0FBFD2378032B04D940F60C
:10187000EA51224801F0F3FD94F90130002B04DA1B
:1018800040F6EC511D4801F0EAFD4FF400011C4AFE
:10189000637851664FF4D151022002F5B83251629B
:1018A00018494F2B48604FF0010028BF4F2301F526
:1018B000805148601169C903FCD4217843EA0123AF
:1018C0005361D4E901131B0143EA0123617B0B43FC
:1018D000217B43EA41039360E37BA17B1B0143EA45
:1018E0004113617C0B43217C43EA41035360A37C99
:1018F00013B16FF4D153536210BD00BF0D5D0008EA
:101900000090005000100250014B1880704700BF3B
:101910000A180020014B1880704700BF08180020EB
:101920004FF4800208B5184B5A660223174A5360D9
:10193000936813F48033FBD1012822D102F00AF816
:10194000134B984215D003F5122303F5F863984220
:1019500013D0104B00EB8002400AB3FBF0F3520AA5
:101960000A49CA620B6301234B620022074B5A608B
:1019700008BD45F67A13084AF2E745F61A03074A06
:10198000EEE75362F1E700BF0090005000400250C4
:1019900000F0490264666666D8B80500BBCF050052
:1019A000B0F5207F38B577D00ED8B0F5007F61D084
:1019B00003D890B3B0F5C07F2FD04FF44671BDE887
:1019C00038403D4801F04BBDB0F5607FF5D13B4A52
:1019D0004C1ED2F8FC5015F080751EBFD2F8FC30BA
:1019E00023F08073C2F8FC30032C04D940F2F721B5
:1019F000314801F034FD324AD2F8803023F0300310
:101A000043EA0413C2F8803035B12C4AD2F8FC30D6
:101A100043F08073C2F8FC3038BD4C1E012C0AD94B
:101A2000102903D8274BCB40DB0704D440F2CB214D
:101A3000214801F014FD01F0DBFD01F0E7FD4FF45A
:101A40008031214B1E4A1967136F23F4704343EA18
:101A50000433136701F064FF0446FFF71FF8C0F179
:101A60000201204601F0CCFD00F048F8BDE8384006
:101A7000FFF7A4BC4C1E1F2C04D94FF443710E4831
:101A800001F0EDFC0E4AD2F8903023F0F85343EA0F
:101A90000463C2F89030BFE74C1E012C04D940F219
:101AA0001231054801F0DBFC054A136F23F4806313
:101AB00043EA84231367AFE70D5D000800ED00E003
:101AC00000800050100101000090005008B5012175
:101AD000022000F099F94FF42070FFF7FFFA054B50
:101AE000187001F085FD01F091FD4FF48032024B3A
:101AF0001A6708BD391700200090005008B54FF450
:101B0000C070FFF753FBBDE808400449884294BF0A
:101B1000012102214FF42070FFF742BF80F0FA024A
:101B200038B5044601F0FCFE0546FEF7B7FFC0F1EC
:101B30000201284601F064FD0121002000F0B8F9FF
:101B40002CB1FFF7DBFFBDE83840FFF737BC034B94
:101B50004FF420701978FFF723FFF4E739170020BE
:101B60002DE9F0410546FFF735FA431E03330446DD
:101B700004D940F6E2113B4801F071FC4FF4C02259
:101B8000394B5A6603F598335A68012A04D137490C
:101B90004A605A689207FCD48020FFF71FFC052892
:101BA00007D101F025FD01F031FD4FF480322E4BBD
:101BB0001A672F4B24F040749D4239D02D4B9D4223
:101BC00039D001F087FE8542064603D90121284617
:101BD00000F06EF9284FFB6813F0060FFBD1D7F821
:101BE0000880BC60BB68634013F4F81F26D1284608
:101BF000FEF782FC8020FFF7F1FB052814D101F0ED
:101C00008FFEA842044604D940F63B21154801F056
:101C100026FCFEF743FFC0F10201204601F0F0FC74
:101C2000FFF76CFFFFF7CAFBAE4213D2BDE8F081AD
:101C300044F00074C5E744F08074C2E740F62A21FE
:101C4000084801F00CFC8020C7F80880FFF7C6FBAD
:101C5000052805D0BDE8F0410121002000F028B999
:101C60003546CCE70D5D00080090005000E00150C3
:101C700040420F0080841E00000001504E4B70B5A2
:101C80009842054673D041D8A3F5B703A3F558632E
:101C9000984265D033D8494B494E984251D017D815
:101CA000002877D041F2DE11464801F0D8FB40F61B
:101CB0008671444801F0D3FB4FF40022404B5A6632
:101CC0003E4B9D4276D000243F4A954236D05DE09F
:101CD0003D4B984227D03D4B9842E3D13C4BD3F843
:101CE000A040621E033224F040744CD940F6867145
:101CF000344801F0B4FB4FF400237366E4E7354B3E
:101D00009842CFD1324BD3F8BC402CE0324B9842B2
:101D100031D0324B984232D0314B9842C2D12C4B09
:101D2000D3F8C8401FE02A4BD3F8A040621E03320C
:101D300024F04074DAD84FF40023736644F08074C2
:101D400024E0234BD3F8A040621E033224F04074F9
:101D50002AD84FF400237366234643F0007415E03D
:101D60001B4BD3F8B840621E154E0332BBE7184B2D
:101D7000D3F8C040F7E7164BD3F8CC40F3E7144B49
:101D8000D3F8D040EFE74FF4002373664FF0B4422E
:101D9000946070BD40F686710A4801F060FB4FF414
:101DA00000232C467366F1E740F68671054801F082
:101DB00056FBCEE70023D0E7C0EA210140420F00E6
:101DC000009000500D5D000880841E0000093D0059
:101DD0000080E00F0024F4000048E801005A62028D
:101DE00080BA8C01024A536B0342FCD1704700BF9A
:101DF00000400950034A0179D36E23F030030B43AE
:101E0000D366704700400050F8B50446244BD3F821
:101E10008420D006FBD4D3F88430C3F381139C42D2
:101E20003CD001F05DFD012C05460BD11D4B9842C5
:101E300004D940F29B711C4801F011FB0121284696
:101E400001F0DEFB03F001FC4FF00072174B074678
:101E50005A66204601F0DFFB4FF48063104E621E8D
:101E600093403367736E9A0103D4D6F884309B068F
:101E70000AD5384603F0E4FB022C0FD12846BDE812
:101E8000F840002101F0BCBBD6F884309906E9D5B2
:101E900040F2B371044801F0E2FAE3E7F8BD00BF95
:101EA00000400050005A62025F5D00080060005070
:101EB00010B50C4608B901F013FD074B21461B78FD
:101EC0003BB1064B984204D80120BDE81040FFF713
:101ED0009BBF0220F9E700BF3A170020005A6202B8
:101EE0004FF0004238B5244B244C5A664AF6CD33A5
:101EF000656C014605F00105236428BB0120FFF74E
:101F000071FF6368DB0715D51D4B586008461D4BF4
:101F1000226BD2070CD4984208D1072415B1174B75
:101F2000194A1A6401F078FB204638BD0130EFE70A
:101F30009842F2D00024F1E70132236B13F008033A
:101F400005D08A42F8D1E8E700220E49F5E78A4237
:101F5000E3D020210A4A91620121A2F5805251600A
:101F60000649084A886A800603D49342D5D00133D3
:101F7000F8E79342DDE700BF0090005000400950B1
:101F80000060095040420F003254FFFF4FF0004202
:101F900038B5164B01465A664AF6CD33144C154AED
:101FA000656C236443780B205B0043F00103D3632B
:101FB000FFF718FF63688A7823F4F87343EA021383
:101FC0006360CA784B7943EA0223A3600A798B796C
:101FD00043EA022323610878FFF782FFEB0744BF3F
:101FE000054B236401F018FB012038BD0090005020
:101FF00000400950004000503254FFFF0F2870B5D8
:10200000044605D940F67461124801F028FA0F24FD
:102010004FF00042104B11495D6E03F580535A6634
:102020004AF6CD334E6C80200B64FFF7DBFE0B6A63
:1020300023F00F0323430B62F30744BF084B0B64E9
:10204000002DA2BF4FF00042064B5A6601F0E4FAA1
:1020500070BD00BF5F5D0008008000500040095067
:102060003254FFFF00A0005010B5044620B940F2E2
:102070003A21104801F0F3F92378C3B1012B03D0C2
:10208000022B14D0032B04D13F236278D340DB070B
:1020900004D440F23D21074801F0E1F901226378C0
:1020A00021789A4030235943034B5A5010BD40F2D7
:1020B000FF33EAE7B15D000840E0035010B5044685
:1020C00020B940F25A21124801F0C9F92378E3B14E
:1020D000012B03D0022B18D0032B04D13F236278AD
:1020E000D340DB0704D440F25D21094801F0B7F981
:1020F00030222378534303F1A04303F57033586C27
:102100006378D84000F0010010BD40F2FF33E6E7ED
:10211000B15D000810B5044620B940F26E211248A6
:1021200001F09DF92378E3B1012B03D0022B18D0E5
:10213000032B04D13F236278D340DB0704D440F261
:102140007121094801F08BF930222378534303F1C0
:10215000A04303F57033186C6378D84000F0010099
:1021600010BD40F2FF33E6E7B15D0008034BD3F842
:102170002424D3F820041040704700BF00C003504F
:1021800010B5044620B94FF449711C4801F067F9B5
:1021900023782BB96078053818BF4FF0FF3010BD99
:1021A000012B08D16378012B1CD0032B14BF4FF0F7
:1021B000FF300420F3E7022B09D16378A3B1052B8C
:1021C00014D0072B14BF4FF0FF300820E7E7032B94
:1021D0000ED16378022B0ED0052B14BF4FF0FF30C9
:1021E0000A20DCE70320DAE70620D8E70720D6E755
:1021F0004FF0FF30D3E70920D1E700BFB15D000801
:10220000064BDA6E02F03002202A06D0DA6E22F097
:10221000300208B142F01002DA6670470040005008
:102220002DE9F041037804460D46164613B3012B01
:1022300003D0022B1ED0032B04D13F236278D3405E
:10224000DB0703D45D21274801F009F9264BD3F8B9
:1022500010331BB16021234801F001F90F2D0CD878
:10226000DFE805F037323232323232323232323255
:102270003232323240F2FF33E0E7B421194801F044
:10228000EEF84FF00008204606B301F0E9FB0F21FD
:1022900067782378072F03EB430388BF083F4FEA93
:1022A0000313124895BFBF00BF0004330C3308FA74
:1022B00007F2B940184401F0B0F985B9204656B18B
:1022C000BDE8F04101F0CCBBA846DCE7FFF7CCFE4F
:1022D000DDE7A846DBE7BDE8F041FFF7C5BEBDE896
:1022E000F08100BF0E5E000800C0035030C00350F4
:1022F0002DE9F047037806460C461546002B50D0D2
:10230000012B03D0022B4CD0032B04D13F23727836
:10231000D340DA0704D44FF49C714A4801F09FF887
:10232000022D06D9042D04D040F23911454801F0A0
:1023300096F8454FD7F8103323B14FF49D714148BB
:1023400001F08DF8002C2FDB73786340032B04D948
:102350004FF49F713B4801F082F80127072C05F0EC
:1023600005094FF00308327805F0060507FA04F76F
:1023700026DC4FEA840A08FA0AF84146334802FA92
:102380000AF201F04AF97278414602F0030230483D
:1023900002FA0AF201F041F9B9F1000F37D12D4BE1
:1023A00036E040F2FF33B2E7631C06D1D7F82414BD
:1023B000707801F041F9041ECFDA2046BDE8F087BD
:1023C000A4F1080A4FEA8A0A08FA0AF841462248A4
:1023D00002FA0AF201F021F97278414602F0030292
:1023E0001E4802FA0AF201F018F9B9F1000F14D0F0
:1023F0001F2C0CDD74211A4801F031F8194BC3F879
:10240000107495B97421164801F029F803E0154BB2
:10241000C3F810746DB90F4B0CE01F2CBFDD742195
:102420000F4801F01CF80B4BE9E774210C4801F050
:1024300016F80C4BC3F814740123064AA340C2F8E3
:102440002034BAE70E5E000800C0035000C40350F9
:1024500008C4035000E0035004C403500CC40350EC
:102460006A5E000800D0035070B5154E0546304234
:102470000C4604D040F28911124800F0F0FF3442BB
:1024800004D04FF4C5710F4800F0E9FF0E4B2C400B
:10249000D3F83024012022EA0502C3F83024D3F80F
:1024A00030241443C3F83044D3F82C242A43C3F80F
:1024B0002C24FFF7A5FE054BC3F8205470BD00BFC8
:1024C000FFFF00F00E5E000800C0035000E0035064
:1024D000F8B5037805460F46164613B3012B03D013
:1024E000022B1ED0032B04D13F236A78D340D80798
:1024F00004D440F29B11174800F0B1FF164BD3F8FB
:10250000103323B14FF4CE71124800F0A8FF2846D3
:10251000FFF736FE791C044606D1421C08D120463E
:10252000F8BD40F2FF33E0E7431CF8D0B8420ED1CB
:102530002846032186F00102FFF772FE012004F114
:10254000100306FA03F19840FFF78EFFE7E74FF01C
:10255000FF34E4E70E5E000800C00350054B9A68A4
:102560009107FCD45A689207F9D4DA69002AF6D1A7
:10257000704700BF00800A5010B5074C6368DB0746
:1025800004D44FF49F71054800F069FF01F0BCFAD4
:102590000223236110BD00BF00800A50C65E000800
:1025A00008B5FFF7DBFF0122024B03F580514A60BB
:1025B0001A6108BD00800A50044B10B55C68012CFC
:1025C00003D1FFF7D9FF024B5C6010BD00800A50B9
:1025D00000A00A5038B5074DFFF7C0FF6B680446EE
:1025E000012B03D1FFF7E8FFFFF7B8FF2378EB607B
:1025F00038BD00BF00800A5038B505460C4601F0D2
:102600008DFABDB96268237812B1127843EAC20329
:10261000627843EA4203A26812B1127843EA821355
:10262000E27843EA8203226912B1127843EA422334
:10263000014A936438BD00BF00800A5030B58D4810
:102640008BB003F016F820B14FF44E718A4800F0B9
:1026500006FF6C46894D0FCD0FC42B68884A236056
:10266000FF238DF80130D2F84C3113F4802340F071
:10267000F580D2F850218DF801309DF801306C467C
:10268000FF2B08BF252368467E4D8DF80130FFF7EC
:10269000D9F83220FFF738F90FCD0FC40FCD0FC492
:1026A00095E8030084E80300754BD3F84C2112032E
:1026B00040F1B880A3F5FE431C88B4F5807F28BFA5
:1026C00064248DF81940FFF7B7F8044484F3080434
:1026D0006D488DF81840FDF715FF6846FEF79AFF24
:1026E0003220FFF717F96948FFF73AFA6848FFF711
:1026F000C5FA684802F0BDFF20B140F2CB115E4838
:1027000000F0ADFE644C0020FFF70AF9FFF7DEF998
:10271000236F002023F0070343F003032367FFF731
:10272000FFF9236F5D4923F4744323675C4BD3F8AF
:10273000FC2012F0807279D1D4F8803023F00303AA
:1027400043F00103C4F88030C1F88020524CD4F823
:10275000203123F0070343F00203C4F82031D4F8FA
:10276000283123F0070343F00203C4F82831D4F8DA
:10277000803123F0030343F00103C4F88031D4F81F
:10278000403123F0030343F00203C4F84031D4F88E
:10279000603123F0030343F00203C4F86031D4F83E
:1027A000403223F0030343F00203C4F84032D4F86C
:1027B000003223F0070343F00203C4F80032D4F8D8
:1027C000083223F0070343F00203C4F80832D4F8B8
:1027D000703223F0030343F00103C4F87032D4F8DD
:1027E000203223F0070343F00103C4F82032FEF740
:1027F000F9FE4FF0E0220020136943F00403136157
:10280000D4F8603223F0070343F00103C4F86032C8
:10281000D4F8943223F0070343F00103C4F8943250
:102820000BB030BDD3F85041E4B24AE7D3F8FC20F6
:1028300022F08072C3F8FC20D4F8802022F003023A
:1028400042F00102C4F880200022C1F88020D3F8B1
:10285000FC2042F08072C3F8FC2077E74FF07E63E3
:1028600093F89C2093F99C30002BFFF606AF8DF86F
:10287000012002E70861000849600008C460000800
:102880000080E00FD8600008C017530200B4C404F1
:10289000C0EA21010C610008008000500090005047
:1028A00000ED00E007B5094B18689A889B79009005
:1028B0006846ADF804208DF80630FFF767FB0C2062
:1028C000FFF79CFB002003B05DF804FB00610008EB
:1028D00013B50024064A6846536F43F0010353675B
:1028E00000948DF80440FFF785FA204602B010BD31
:1028F000004000504C2810B5044608D80123610957
:10290000074A04F01F04A34042F8213010BD4FF4E1
:102910009871044800F0A3FD002CF7DBEEE700BF40
:1029200000E100E0206100084B2810B5044604D9FE
:1029300040F23B11064800F092FD064B621153F83D
:10294000220004F01F04E040C04300F0010010BD6D
:102950002061000800E100E0002808DB01224309B3
:10296000034900F01F008240603341F82320704784
:1029700000E100E038B500F110035C2B04460D4681
:1029800004D94FF4EF710E4800F069FD0F2D04D902
:1029900040F2DF110A4800F062FD60B20028ACBFCF
:1029A00000F16040074B4FEA0515EDB2ABBF00F5F3
:1029B000614000F00F0080F800531D5438BD00BF87
:1029C0002061000814ED00E010B502F047FE0A4B4C
:1029D0001A786AB901226FF004041A7002F039FE05
:1029E000204605210134FFF7C5FF4C2CF8D110BD5E
:1029F000BDE8104002F02DBE3B17002007B5684629
:102A000000F00AFADDE900010022034B03B05DF893
:102A100004EB00F037BA00BF600B00202DE9F04F47
:102A20009B46531C05460E46174687B035D170B3FA
:102A300008244FF00008784BCDF8148083F800800C
:102A4000109B002B00F0DF80C3F80080002E00F008
:102A5000DC806B68B34240F2D88002F0FFFD07369D
:102A600005AB26F007063A46CDE9008382465B4671
:102A70003146284600F056FE059F814607B1F8B959
:102A8000504602F0E6FD192007B0BDE8F08F40F295
:102A9000A721624800F0E3FCCAE7531EB3F5007FAC
:102AA00001D21A4204D040F2A2215C4800F0D7FCC7
:102AB00025B940F2A721594800F0D1FC3C46B8E7BF
:102AC000B7F8028029694FEAC802C0EBC80801398B
:102AD000B8F1270F29617BD9BBF1000F51D1864294
:102AE00006F1080848D022463946284600F0C4FDC1
:102AF00004460590059B9844404600F00FFE05995A
:102B000006F10F004A88C308A2EBD002A8F8022001
:102B1000CA88A8F80430002A30D0D31A9BB201EB3F
:102B2000C202A8F8063093808B88F608A380B8F814
:102B300004303A46E380414600232846668000F090
:102B40003CFEAB680833AB60237843F0010323708D
:102B50002B6901332B616288AB68504603EBC203DB
:102B6000EA68AB60934288BFEB6002F072FD109B95
:102B7000083400201C6087E73C46BBE7A8F8062025
:102B8000D2E707EB08042046039200F0C7FD09F1E5
:102B90000701C9080598618008F10701C908A180EB
:102BA000C18899B1C900039ACE1DB21A02EB09037C
:102BB000C3F3CF030144E3808B80A38808F1FF387F
:102BC0004FEAD808A0F80280C380BAE7E180F4E7B2
:102BD000BBF1010F1BD107F10803B3FBF4F204FBB7
:102BE0001233B3B122463946284600F045FD04466B
:102BF00023783A4643F001032370214601232846F7
:102C000000F0DBFDA7E722203EE721203CE78642DB
:102C1000E8D13C46ECE700BF131800209C61000897
:102C200007B5009313460A4601460348FFF7F6FE30
:102C300003B05DF804FB00BF600B00202DE9F74FE7
:102C40000C46054620B940F28531724800F007FC79
:102C5000002C00F0DC80D5E9056802F0FFFC14F8D8
:102C6000087C34F806CCFB07009002D5BCF1000FBD
:102C700006D1009802F0EDFC012003B0BDE8F08F12
:102C8000AB68D5F8109034F804ECA3EBCC0B09F149
:102C90000103A4F108010CF10102C5F808B02B6191
:102CA000BEF1000F39D0A1EBCE03D888B3F802A053
:102CB0000190187807F00207C00723D41FBB0198C2
:102CC000A0EB0A07012F28D10CF10202ABF1080793
:102CD0005244C5F81090AF6034F802ECBEF1000F1A
:102CE0001DD114F8081C24F806EC6EF3000104F85A
:102CF000081C013A5A801A786EF300021A700022FA
:102D0000DA8040E04FB114F8087C72446FF3410759
:102D100004F8087C00279F80DEE70B46DCE701EB28
:102D2000CE0AD5E9007007EB0009CA450ED314F8A6
:102D3000081C013A6FF3000104F8081C002124F874
:102D4000061C5A801A7861F30002D7E711F83E108A
:102D5000574611F001012FD014F8081C013A6FF307
:102D6000000104F8081C002192B224F8061C5A80C5
:102D70001A7861F300021A70C3F107023A44C2F3F1
:102D8000CF02DA80BA80002E3FD0B3423DD37288A2
:102D9000002A08BF1E46B8F1000F06D0434504D8EC
:102DA000B8F80220002A18BF43460098C5E9056319
:102DB00002F04FFC002060E7AEEB0C0EBEF1010FFD
:102DC000CAD1BAF802C0AAF802109444BAF8062090
:102DD000CAB10AEBC20700212A69013A2A61AA682E
:102DE000083AAA6014F8082C24F8061C6FF30002B5
:102DF00004F8082C1A78A3F802C061F300021A70D4
:102E0000002FB9D17BE71746E5E71E46C3E722202E
:102E100033E700BF9C6100080249034A0160521A6F
:102E200042607047201800200000042038B5036974
:102E30000D4614460BB33AB999B9046824B940F267
:102E400039110F4800F00BFB2378D90707D555B986
:102E5000E38893B104EBC3042378DA07F8D420465F
:102E600038BD8469EAE7012D07D1A3882BB1A4EB13
:102E7000C3042378DB07F8D4F1E70024EFE700BFB1
:102E80000A620008F8B50D4617461C46064618B1FA
:102E900011B1042A00D823B940F28F110E4800F076
:102EA000DEFA00213046C4E90065C4E90211C4E934
:102EB000056621612777616200F030FC2369013DDE
:102EC000ED08013375802361A36808460833A360C9
:102ED000E3680833E360F8BD0A6200080048704701
:102EE000600B002008B500F080FA034B1868BDE8BD
:102EF000084002F0BFBC00BF880B002030B5094D70
:102F00008BB001AC0FCD0FC40FCD0FC42B680021C7
:102F100001AA0548236002F05AFC044B18600BB06C
:102F200030BD00BF80620008E52E0008880B00203D
:102F300070B502F093FB144E05463478FCB9134B80
:102F40001C60134B1C60134B1C6000F02BF801201D
:102F500002F0F8FB00F0B6FF0F4B0246186020B9F4
:102F6000284602F076FB232070BD234640F2E7316D
:102F70000A4800F06DF80A4B1860012333702846A8
:102F800002F067FB0020EFE73E170020940B0020C3
:102F9000900B00209C0B0020980B002018FCFFFFDA
:102FA0008C0B002010B5002486B01422214601A805
:102FB0008DF8004000F079FC012313488DF80430AF
:102FC00002F057FBBFF34F8F6846FFF703FB204625
:102FD00001A98DF80440FFF70FFB20460F2100F0F8
:102FE000BDFD0F21204600F0C7FDFFF7D9FA00F024
:102FF0008BFD064B43209C61FFF7AEFC4320FFF79F
:1030000079FC06B010BD00BF0861000800800A50BE
:1030100040F6B131014800F022BA00BF0A6300084F
:10302000002307B50193084B1B68013304D040F21D
:103030002131064800F013FA02F082FD019B002BBB
:10304000FCD003B05DF804FBF4170020A364000873
:1030500053B94AB9002908BF00281CBF4FF0FF31FF
:103060004FF0FF3000F082B9ADF1080C6DE904CEED
:1030700000F006F8DDF804E0DDE9022304B0704753
:103080002DE9F04F099D0C46002B4DD18A420F4689
:1030900084469646B2FA82F360D94BB102FA03FE37
:1030A000C3F120029F4000FA03FC20FA02F217430A
:1030B0004FEA1E461FFA8EF44FEA1C42B7FBF6F1A8
:1030C00006FB117701FB04F042EA0742904208D95F
:1030D0001EEB020201F1FF3702D2904200F2318171
:1030E0003946121A1FFA8CFCB2FBF6F006FB1022CE
:1030F00000FB04F44CEA024C644508D91EEB0C0CAE
:1031000000F1FF3202D2644500F21E81104640EA0F
:103110000140ACEB040C002125B12CFA03F3002292
:10312000C5E90032BDE8F08F8B4205D90DB1C5E984
:10313000000100210846F5E7B3FA83F100294DD1DB
:10314000A342C0F0F380904280F0F0800646234610
:103150000846002DE6D0C5E90063E3E7002B40F008
:10316000A3808A1A4FEA1E471FFA8EF60121B2FB8E
:10317000F7F407FB14204FEA1C4242EA004206FB28
:1031800004F090420FD91EEB020204F1FF382CBF6D
:103190004FF001094FF00009904203D9B9F1000F37
:1031A00000F0CC804446121A1FFA8CFCB2FBF7F0F8
:1031B00007FB102200FB06F64CEA024C664508D9D4
:1031C0001EEB0C0C00F1FF3202D2664500F2B38018
:1031D0001046ACEB060C40EA04409DE7C1F1200626
:1031E0008B4004FA01FE22FA06F720FA06FCF440AE
:1031F0008A401F434EEA0C0300FA01FE4FEA1748CB
:103200004FEA13491FFA87FCB4FBF8F008FB10449F
:1032100049EA044400FB0CF9A1450ED93C1900F120
:10322000FF3A2CBF4FF0010B4FF0000BA14503D923
:10323000BBF1000F00F08B805046A4EB09041FFA8D
:1032400083F9B4FBF8F308FB134403FB0CFC49EAD5
:103250000444A44506D93C1903F1FF3801D2A44522
:103260007BD8434643EA0040A4EB0C04A0FB029841
:103270004445CC46434602D306D1CE4504D201385C
:10328000B9EB020C68EB0703002D6CD0BEEB0C020F
:1032900064EB030422FA01F304FA06F6CC400021A1
:1032A0001E43C5E900643DE702FA03FEC3F12001B5
:1032B00004FA03F200FA03FCCC404FEA1E4720FA5E
:1032C00001F11FFA8EF6B4FBF7F00A4307FB104436
:1032D000110C41EA044100FB06F48C420ED91EEBAE
:1032E000010100F1FF382CBF4FF001094FF0000938
:1032F0008C4202D9B9F1000F2CD04046091B92B282
:10330000B1FBF7F407FB141142EA014204FB06F19A
:10331000914207D91EEB020204F1FF3801D291421B
:103320001ED84446521A44EA004120E7861A64EB4C
:10333000030301200DE7F44402384AE7023C7244DB
:1033400031E702397244CCE6F4440238DFE6023851
:103350003C4472E702387144D0E7023B3C4481E7C9
:10336000023C7244DEE72946DCE600BF704700BF3E
:1033700008B5064B044613B10021AFF30080044B9F
:103380001B6803B19847204600F06AF8000000006F
:103390003417002070B50D4D00260D4C641BA41091
:1033A000A64209D10B4D00260B4C02F0F9FB641B21
:1033B000A410A64205D170BD55F8043B01369847CC
:1033C000EEE755F8043B01369847F2E7181800205D
:1033D00018180020181800201C18002008B5FCF749
:1033E0007FFFBDE80840FCF7C3BF08B500F024FA32
:1033F000FFF7F4FF00F057FA00B908BD00F01BFA20
:10340000F8E77047704770477047704708B5FCF79A
:10341000F7FF00F02BF9BDE80840FCF7E7BF704765
:1034200000F0C4BD08B5FDF7F3F8FCF7C3FFBDE835
:103430000840FCF7CDBF00F002B8704770470F207E
:103440007047FEE700239A4200D1704710B550F84C
:10345000234041F8234001339A42F8D110BDFEE7E2
:10346000FEE7436803B1184722207047436903B160
:103470001847FF207047704737B50D680C46AB887A
:10348000ADF804302B78022B0CD00DF1030101A80C
:10349000FDF7A6F99DF80330204683F001032B7059
:1034A000FFF7E9FF03B030BD03681878704713B524
:1034B0000468A388ADF804302378022B15D00DF1F1
:1034C000030101A8FDF78CF9A2799DF80330012AC8
:1034D00013D1618843EA41034FF6E07163F03F0383
:1034E0009BB28B4203D12270638002B010BD4FF6B5
:1034F000DF729342F8D10022F5E7002AF5D183F07C
:1035000001032370F1E703681A78022A03D100222D
:103510005A80FDF707B8704710B504682378022B6E
:1035200007D0A379022B02D16079FDF7FBF90223C2
:10353000237010BDD0E900031847C368006818471E
:1035400003690068184707B503788DF8043043789D
:103550008DF80530837801A823B9FDF7E1F803B0B1
:103560005DF804FBFDF7B0F8F9E707B503788DF8CF
:10357000043043788DF80530837801A823B9FDF72E
:10358000A3F803B05DF804FBFDF7CAF8F9E707B547
:1035900003788DF80430437801A88DF8053000F0E9
:1035A00031FA03B05DF804FB13B5044603780DF15E
:1035B00003018DF80430437801A88DF80530FDF73C
:1035C000DDF8A3789DF803000BB980F0010002B08C
:1035D00010BD70B5054614460E4602F036F82B684D
:1035E0005C4034405C402C60BDE8704002F028B87C
:1035F00008B500F0A7F9BDE808400021FDF7AABD15
:103600000029CCBF01210021FDF7A4BD02214FF408
:103610002070FEF7C5B97047704770B5054614466F
:103620000E4602F012F82B685C4034405C402C607F
:10363000BDE8704002F004B821FA00F2D20730B5BC
:10364000034600F0FC040FD500220132D2B2042A56
:1036500002D14FF0FF3008E0831803F00303234446
:1036600021FA03F5ED07F0D4184630BD00F000B89C
:1036700000207047FEF7E2BFF8B50C468D180735FD
:1036800052421540A5F108070646384600F046F8B4
:10369000A188381B628801EBE00189B2A2EBE0024D
:1036A00025F8041C25F8062CA288C310AAB1A4EBA7
:1036B000C202B2F802C0D18003EB0C015180E28853
:1036C00092B1D31A9BB204EBC20425F8023CA3804A
:1036D000B3680344B3603846F8BD15F8082C42F0CF
:1036E000020205F8082CEAE725F8022CF0E707B5F6
:1036F00000224FF0FF3101AB0192FFF791FA0198E0
:1037000003B05DF804FB10B50446FFF7E7FB214664
:10371000BDE81040FFF792BAFFF7F5BF0023036042
:1037200043607047F0B5D0E90540551C08BF08223A
:10373000002B4FF0000518BF0446DDF818C0CCF888
:103740000050002C37D09DF814706588FF0007EBFF
:10375000C505C2F1000E2078C00708D51BBBE08864
:10376000A0B104EBC004658807EBC505F3E78D4203
:10377000F4D363B904F10806B6FBF2F002FB10665D
:1037800070180EB1A842EAD8CCF80040F0BD082A63
:103790000FD06088013004EBC000461A06EA0E061E
:1037A000801B8542F0D2A0880028EFD0A4EBC00493
:1037B000D9E70846E8E72046E8E72DE9F041D0E9F7
:1037C0000545074688461646F3B194420FD042B1EC
:1037D000954215D1424601213846FFF727FB0546A1
:1037E0000EE00A463146FFF721FB0446F2E70A469F
:1037F0000021FFF71BFBB5420446EBD0002EE9D0B9
:10380000C7E90545BDE8F081944208D08C4228BF45
:103810000C46B54205D0454538BF4546F0E70C4655
:10382000F7E74546ECE708B500F013F800F039F883
:10383000FEE770477047704708B5FFF7E7FDFFF7F1
:10384000F1FDFFF7F8FDFFF7F8FDBDE80840FFF7D1
:10385000F5BD08B5FFF7D2F8FFF7EBFFFFF7B4F8B7
:10386000FFF720F8FFF706FFFFF732F8FFF760FBDE
:10387000FFF7E0FF00F084FB00F007F8FFF7CFFD53
:10388000BDE80840FFF73ABB704708B5FFF7BAFD3F
:10389000FFF7B9FDFFF7B8FDFFF7B7FDFFF7F4FF3E
:1038A00008BDFFF7BDBD00207047024403469342A8
:1038B00000D1704703F8011BF9E70A44431E914207
:1038C00000D1704710B511F8014B914203F8014F38
:1038D000F9D110BD014B1868704700BFE4170020F4
:1038E0000A4B1B6F03F00703013B032B03D8DFE8F0
:1038F00003F00A030608FEE7054B18687047054BFE
:10390000FBE7054870470548704700BF008000503E
:10391000E4170020EC17002080D54302002D310170
:1039200008B5FFF7DDFF054B1B6FC3F3033301330E
:10393000B0FBF3F0024B186008BD00BF00800050E0
:10394000E01700200048704700B4C40400487047E6
:10395000002D3101014B1868704700BFEC170020A3
:103960000048704780D543024FF40022184B5A6636
:103970004FF0B4439868C0F304400C280AD8DFE83D
:1039800000F00B0909090909072119091B1D1F006E
:1039900010487047002070479B6803F04073B3F1F4
:1039A000807F11D0B3F1007F10D00B4A002B08BFED
:1039B00010467047094870470948704709487047E2
:1039C00009487047094870470948704709487047D7
:1039D00000900050405DC60000093D00C0EA210192
:1039E00080BA8C010048E801005A62020024F40009
:1039F00080841E0040420F00014B1868704700BFD2
:103A0000E817002038B5044630B914484FF48A71DD
:103A1000FFF725FD222038BD03788BB1012B03D0A1
:103A2000022B0DD0032B04D13F236278D340DB0758
:103A300009D40A484FF48C71FFF711FD2120EAE701
:103A400040F2FF33F1E701F009FE0546204600F0A1
:103A500031F8284601F0FDFD0020DCE7B45C0008E9
:103A600010B5044620B94FF4D8711048FFF7F7FCA1
:103A70002378C3B1012B03D0022B14D0032B04D124
:103A80003F236278D340DB0704D440F2B3110748E8
:103A9000FFF7E5FC0122637821789A4030235943EF
:103AA000034B5A5010BD40F2FF33EAE7B15D000806
:103AB00040D0035010B5044620B940F29D21104873
:103AC000FFF7CDFC2378C3B1012B03D0022B14D018
:103AD000032B04D13F236278D340DB0704D44FF497
:103AE00028710748FFF7BBFC0122637821789A40D0
:103AF00030235943034B5A5010BD40F2FF33EAE7DD
:103B0000B15D000840F00350034B5A68D20702D55C
:103B1000DA69002AF9D1704700800A5038B9064B9B
:103B20005A68D20702D59A6D002AF9D170478C21C4
:103B30000248FFF794BC00BF00800A50255F0008D0
:103B400010B9044B5964704740F2C7110248FFF79F
:103B500086BC00BF00900A50255F000810B9044BD6
:103B60005964704740F203210248FFF778BC00BF58
:103B700000A00A50255F000810B9044B1964704773
:103B800040F23F210248FFF76ABC00BF00A00A5084
:103B9000255F000808B510B9044B186C08BD04482F
:103BA00040F27A21FFF75BFC0020F7E700800A5023
:103BB000255F000838B504460D46FFF7AFFF14B97E
:103BC0001DB1012D04D0002001E0034BD86C38BD9D
:103BD000014B186DFBE700BF00800A5070B5064628
:103BE0000D461446FFF79AFF16B915B1012D03D003
:103BF00070BD034BDC64FBE7014B1C65F8E700BFBD
:103C000000800A5070B50D46E8B1036813F4E07FF8
:103C100003F03F06C3F3821210D0012A13D10B4CDC
:103C20009B0603D591210A48FFF719FC45B104F51D
:103C3000805401230020B340236070BD054CEFE7A2
:103C400004F50054F5E70E20F7E700BF6880005048
:103C5000835F00086480005030B50E4C41612368DA
:103C60008BB9206083600DE0891A9A681D46416116
:103C70006AB113465A698A42F6D935B1A860521A18
:103C800083605A6130BD0025F4E72060F7E7986053
:103C90008260F7E7940B00200D490B68A0B1002269
:103CA000A3B1834203D1836822B90B6003E01A46B3
:103CB0009B68F5E7936083680BB9002070475A69E9
:103CC00041690A445A61F8E7222070470220704790
:103CD000940B002038B500F0EDF80025084B094C96
:103CE0001A682368C31A2AB123B15169994203D3D0
:103CF000C91A5161206038BD55615B1A9268F2E7BC
:103D0000940B0020900B002038B5154D2B682BB379
:103D10005B69A3B1134A022014681C4401F012FD30
:103D2000204600F0DBF800230F492A680B7022B10F
:103D3000D08880070AD501230B70002038BD0220EF
:103D400001F000FD022000F013F9ECE79268002A70
:103D5000F3D050690344012BEAD9EEE72220EDE7C6
:103D6000940B0020900B00203D170020C2072DE986
:103D7000F843044607D54B4A136801331360FFF735
:103D8000A9FFFFF7C1FFA30740F18A8001F066FC9D
:103D90004FF0000805464646FFF79CFF424F3C683F
:103DA0000CB16369A3B10022404B012E1A7003D1FC
:103DB00018F0020F18BF1E70FFF7A6FF222802D1CD
:103DC000022000F0C3F82846BDE8F84301F041BCEA
:103DD00023465A693AB91A792179914288BF1C461B
:103DE0009B68002BF5D1284601F033FC2569DDB135
:103DF00000F060F8A269A0EB02084FEAE873A8455A
:103E000073F1000311DB23691344A361E36813B169
:103E1000204621689847B4F8068001F01FFC01365F
:103E20000546FFF757FFBAE7A84601F017FC8146A1
:103E30002046FFF731FF484601F00BFC2369002BB9
:103E4000E4D0B5EB08054FEAE87363EB4303012DBB
:103E500073F1000304DA40F247611548FFF7FFFAF7
:103E6000A38B33B1E28B13449BB2B3F57A7F0FD2AD
:103E7000E38301F0F3FB804629462046FFF7ECFE82
:103E8000A369226940461344A36101F0E2FBBDE748
:103E9000A3F57A73E383A369013D013BA361E8E7DE
:103EA000BDE8F8839C0B0020940B00203C170020F9
:103EB000A462000808B5FFF727FE014B986908BD0A
:103EC00000800A5007B5044B01A9187901F0CCFB1A
:103ED000019803B05DF804FB14610008F8B50446CE
:103EE00001F0B3FB0746FFF70FFE154B9D6901F08C
:103EF00025FC06460020FFF74DFE830704D4731B04
:103F0000032B01D8AE420FD10021631B022B98BFB7
:103F1000EC1C0846B4F1FF3F2CBF2246621EFFF79F
:103F20005DFE022001F00EFC384601F089FB054BD6
:103F30001A7822B10121044A916400221A70F8BD56
:103F400000800A501418002000900A50830700F0E7
:103F5000010106D50123044A41F002011370034A0E
:103F600093640020FFF7FABD1418002000A00A5047
:103F7000830742BF0222014B1A64704700900A5027
:103F800008B501F002FC48B900F05AFF01280346C9
:103F900007D1054A106820B9136008BD6FF005000D
:103FA000FBE74FF0FF30F8E75011002010B501F0AB
:103FB000ECFB044668B900F043FF01280CD1084B24
:103FC0001A68012A08D102221A6000F057FC204624
:103FD00010BD6FF00500FBE74FF0FF30F8E700BFC2
:103FE00050110020034B0360034B0B60A0231360B0
:103FF000704700BFF8100020780E0020034B0360CC
:10400000034B0B60A0231360704700BF200E0020FD
:10401000A00B0020F0B585B00E461D460446019267
:1040200020B940F273314948FFF719FA36B9236CC9
:1040300023B14FF45D714548FFF711FA022D07D106
:10404000E36B012B04D040F275314048FFF707FACB
:1040500000F0F6FE30B9019B23B14FF45E713B488E
:10406000FFF7FDF901F044FAA26BE36B9A421FD20D
:104070002A463146204601F099FC636A1BB104F1DF
:10408000240000F021FE08B101F03DFD01F03EFAF0
:10409000012005B0F0BD01F02BFAA26BE36B9A4250
:1040A000E6D30123019A42B901F030FA0020F0E78B
:1040B000022DDDD000231F46F4E713B902A800F05B
:1040C00015FF01F023FA00F027FC01F011FA94F833
:1040D0004430FF2B08BF84F8447094F84530FF2B20
:1040E00008BF84F8457001F011FA01A902A800F098
:1040F00009FF20BB01F0FCF9A26BE36B9A4210D1DF
:1041000001F004FA019904F1100000F095FD204639
:1041100001F009FC00F0CCFC0028BCD101F0F3FC5C
:1041200006E001F0F3F9204601F0FDFB00F0C0FCD1
:1041300001F0DEF9A36BE26B9A42B2D998E7204610
:1041400001F0F1FB00F0B4FCB0E700BF73630008BE
:10415000F0B585B00E460446019220B940F23A51BE
:104160003C48FFF77CF936B9236C23B140F23E514D
:104170003848FFF774F900F063FE30B9019B23B1B2
:1041800040F243513348FFF76AF901F0B1F9A56BEA
:104190009DB13146204601F03CFC2369013DA563F9
:1041A00033B104F1100000F08FFD08B101F0ABFC59
:1041B00001F0ACF9012005B0F0BD019BABB302A842
:1041C00000F094FE2F4601F0A1F900F0A5FB01F0EC
:1041D0008FF994F84430FF2B08BF84F8447094F8AA
:1041E0004530FF2B08BF84F8457001F08FF901A915
:1041F00002A800F087FE10BB204601F0CCFBC0B146
:10420000019904F1240000F017FD204601F08BFB1A
:1042100000F04EFC08B901F076FC01F069F9A56BDD
:10422000002DB6D1019B002BCDD101F06FF90020FC
:10423000C1E7204601F077FB00F03AFCEDE72046AD
:1042400001F071FB00F034FC204601F0A4FB0028D3
:10425000E3D0ECE77363000870B50D46044620B95F
:1042600040F632210E48FFF7FAF8BDB100230D4A9F
:10427000194610465668A64204D100EBC103C3E9B3
:1042800000540BE01BB91668002E08BF134601311D
:104290000A2902F10802EDD1002BF0D170BD00BF58
:1042A000736300085411002070B50E46044640B1F7
:1042B000C56B65B91D4840F25B11FFF7D0F80020CF
:1042C00029E04FF499711948FFF7C9F8F2E7036C38
:1042D000A3FB0535002DEDD101F00AF9D4E90F312A
:1042E0004B432268A563D0185B1A62601A44FF230F
:1042F000A06084F84430E26084F8453066B92369F0
:1043000033B104F1100000F0DFFC08B101F0FBFB59
:1043100001F0FCF8012070BD04F1100001F0C4FAB6
:1043200004F1240001F0C0FAF2E700BF7363000853
:10433000F7B507460D4616461C463BB160B91E4808
:104340004FF4CE71FFF78BF8002026E040F2731196
:104350001948FFF784F8F2E742B10029EFD0502363
:104360000193019B502B20D1019B08E00029E6D14D
:1043700050230193019B502B11D12646019B012113
:104380002046C4E90F7584F846102660FFF78CFFBD
:1043900020469DF8203084F84C3003B0F0BD4FF437
:1043A000C2710548FFF75BF8E7E74FF4C2710248B6
:1043B000FFF755F8D8E700BF7363000800222DE926
:1043C000F84306461E4B1F4C1D681F4B0F46D3F883
:1043D00000801E4BD3F800902368206883F8562095
:1043E000043001F091FA731C14D19FB1184B21686D
:1043F0005A688A6090682168C86021680431416009
:10440000216804319160226853611A6801321A6090
:10441000BDE8F88323682168AD195D6001F10401EE
:1044200004D34846BDE8F84301F04CBA404601F0D9
:1044300049FA084B1A68AA4288BF1D60E8E700BF26
:10444000C8110020A0160020141200201012002015
:10445000D0110020AC110020064A13681968064BE1
:1044600019B94FF0FF321A6070471268D2681268AB
:10447000F9E700BF14120020AC11002010B590F82D
:10448000553004463BB9006B01F078FB2046BDE88F
:10449000104001F073BB012BF9D0022B06D0BDE810
:1044A000104041F216710248FEF7D9BF10BD00BF9F
:1044B000D2630008F8B50C4C0C4F0D4D236803B9BE
:1044C000F8BD01F015F8FB68DE68301D01F01CFA3C
:1044D0002B68013B2B602368013B236001F016F839
:1044E0003046FFF7CBFFE9E7E4110020E811002098
:1044F000CC1100202DE9F041044600F0F9FF304BCB
:10450000304E1A68304F01321A603568002D4AD19A
:1045100034601B68012B1FD1B8464046013501F0BD
:10452000C3F9382D08F11408F7D1DFF8C480274DFE
:10453000404601F0B9F9284601F0B6F9244801F0E7
:10454000B3F9244801F0B0F9234801F0ADF9234B49
:10455000C3F80080224B1D60224A201D13680133DE
:104560001360214A23641168E36A8B4288BF136099
:1045700014225343F9184A689568A260E5606860A0
:104580009060FA5861610132FA5000F0BFFF174B9A
:104590001B689BB13368DA6AE36A9A420ED2BDE8BF
:1045A000F04101F0B0BA114B1A68E36A002AD3D186
:1045B0003268D26A9A4298BF3460CDE7BDE8F08194
:1045C000CC110020A016002040120020181200205C
:1045D000FC110020E8110020D0110020141200204E
:1045E00010120020B0110020C4110020C0110020C2
:1045F0002C12002008B5044CFFF75CFF2368012B48
:10460000FAD901F080FAF7E7401200202DE9F047CF
:104610000E46DDE9085A0A9C97003A468046A521D5
:10462000206B9946FFF741F9236B043F1F4427F0A5
:1046300007076EB1731E04F13302093613F8011F28
:1046400002F8011F09B1B342F8D1002384F83D30CC
:10465000372D05D940F2FB610F48FEF700FF3725E3
:10466000E562A564201D01F02AF9C5F1380504F1C1
:10467000180001F024F94B4642463846216B24616C
:10468000A561646200F068FE2060BAF1000F01D0FD
:10469000CAF80040BDE8F087D26300082DE9F04376
:1046A0009846002387B00546DDE90F940E4617466D
:1046B0000493B9F1000F22D074B358230593059BDE
:1046C000582B2FD1582200212046059BFFF7EDF8EB
:1046D000022384F8553004ABC4F8309001930E9B4C
:1046E000284600933A46434631460294FFF78EFF30
:1046F0002046FFF7FFFE049807B0BDE8F08340F2C4
:10470000BE410E48FEF7ABFE34B158230593059B1E
:10471000582B0DD1059BEEE740F2BF410748FEF74D
:104720009EFEF2E740F2C7410448FEF798FEC9E753
:1047300040F2C7410148FEF792FEEBE7D263000862
:10474000F8B50446204D00F0D3FE04B92C68271DAF
:10475000384601F0D9F8A36A1BB104F1180001F042
:10476000D3F81A4A1A4E1368013313602B68A34218
:10477000336800D15BB9174A1368013B1360FFF738
:104780006BFE00F0C3FE2046FFF778FE09E03946D5
:10479000114801F0AEF8114A13680133136000F0BC
:1047A000B5FE336873B12B68A3420BD10C4B1B6869
:1047B00023B140F679010B48FEF751FEBDE8F84001
:1047C00001F0A1B9F8BD00BFA0160020B011002073
:1047D000C0110020CC110020E8110020E4110020BD
:1047E000A4110020D26300082DE9F041044620B94D
:1047F00040F60E111A48FEF732FE1A4B1B68A34210
:1048000026D000F075FE184BD4F828801F68174B8F
:1048100065691E6800F07AFE154B98451AD0BD42B6
:104820001AD0B54218D0134B9D4209D1A36A9BB947
:1048300094F85430012B14BF03200220BDE8F0810E
:104840000D4B9D420AD0002D14BF01200420F5E736
:104850000020F3E70120F1E70220EFE70420EDE775
:10486000D2630008A01600201412002010120020AD
:10487000FC110020D0110020E811002030B58BB0D1
:1048800007AB1D461C4A12F8014B03F8014B002CE4
:10489000F9D106AA05A904A8CDE90444FFF7A2FBB3
:1048A000049B29460293059B069ACDE900431348D1
:1048B0002346FFF7F3FE124B186080B100F0ECFCCA
:1048C000012805460FD101F03BF94FF0FF320D4BA7
:1048D0001A600D4B1D600D4B1C6000F089FD0C4BE8
:1048E0001B680BB030BD0135F9D140F66B5109485A
:1048F000FEF7B5FDF3E700BF31640008F545000899
:10490000A8110020AC110020C0110020C811002007
:10491000F0170020D2630008024A136801331360C5
:10492000704700BFA4110020014B1868704700BFFA
:10493000C81100202DE9F84F514B1B68002B40F0A7
:104940009980504B1C6801341C609CB94E4D2B68FB
:104950001B6823B141F2D3014C48FEF780FD4C4B5C
:104960002A68196829601A604A4A1368013313607B
:10497000FFF772FD484D00202B68484AA342DFF83C
:1049800028B10FD91421DBF80030DB6A4B43D35830
:10499000022B434B28BF01201B68002B18BF0120AE
:1049A000BDE8F88F0746DFF804C1374B1B681B686A
:1049B0001BB94FF0FF332B60E4E7334B1B68DB6818
:1049C000DB6859688C4201D22960DBE7D3F8148098
:1049D000D3E90219C1F80890C9F80410D8F80410F6
:1049E00003F1040E7145D8F8001008BFC8F8049010
:1049F00001395F61C8F80010D3F82880B8F1000FC2
:104A000013D0D3E90719C1F80890C9F80410D8F8F1
:104A1000041003F1180A5145D8F8001008BFC8F86F
:104A2000049001399F62C8F800101426D96ADCF896
:104A30000080414506FB01F802EB080ADAF8049011
:104A400088BFCCF80010D9F80860C3F80890DE6081
:104A5000C6F804E0C9F808E0C3F814A052F808301A
:104A6000013342F80830DBF80030DB6A994288BF36
:104A700001209AE70B4A00201368013313608FE787
:104A8000A4110020C811002014120020D2630008D5
:104A900010120020B4110020AC11002040120020A0
:104AA000B8110020BC110020A0160020C411002065
:104AB0002DE9F84F474C00F01BFD236823B940F661
:104AC0003D614548FEF7CBFC2368013B236023682A
:104AD0002BB1002400F01AFD2046BDE8F88F3F4AB4
:104AE0001268002AF5D014254FF0010C3C483D4CCB
:104AF0003D4A3E4E3E4F51E0C368DB68D3F828E0A4
:104B0000D3E90718C1F80880C8F80410DEF80410CB
:104B100003F1180949454FF0000108BFCEF80480A1
:104B20009962DEF800100139CEF80010D3F814E0D5
:104B3000D3E90218C1F80880C8F80410DEF80410A0
:104B400003F104094945DEF8001008BFCEF80480DF
:104B50000139CEF80010D3F82CE0216805FB0EF8DF
:104B600002EB080A8E45DAF8041088BFC4F800E0AA
:104B7000D1F808B09960C3F80CB0CBF80490C1F834
:104B8000089052F80810C3F814A0013142F8081038
:104B90003168C96A8E4501D9C7F800C0016800298B
:104BA000AAD10BB1FFF758FC124D2C6844B1012774
:104BB0000F4EFFF7BFFE00B13760013CF9D12C600A
:104BC0000B4B1B68002B84D0084B01241B6800F0A2
:104BD0009AFF7FE7A4110020D2630008CC110020C7
:104BE000FC110020C411002040120020A01600205B
:104BF000B8110020BC11002010B5044618B9BDE85A
:104C0000104000F080BFFFF787FE094B1B68012BA7
:104C100004D040F6E1010748FEF721FC00212046C0
:104C2000FFF7CCFBFFF744FF0028E8D010BD00BF22
:104C3000A4110020D263000838B50D46044620B9FF
:104C400041F2B9210748FEF70AFC074B20461968D4
:104C5000183100F037FE2846BDE838400121FFF743
:104C6000ADBB00BFD2630008A016002070B50E4691
:104C70001546044620B941F2F7211148FEF7EFFB33
:104C8000104B626819689068CA611968002D086243
:104C9000196801F11801416019681B6801F11801D8
:104CA00091609C622368294603F1010308BF3046E6
:104CB000236018BF4FF0FF30BDE87040FFF77EBBA8
:104CC000D2630008A0160020F8B5C368DC6824B9D8
:104CD00041F22C312648FEF7C2FBD4E90712A36A41
:104CE0008A605160596804F11800814208BF5A6017
:104CF0000022A2621A68013A1A601E4BE26A1B681F
:104D0000002B29D1D4E902016369816048605868A9
:104D1000251DA84208BF5960196801391960164B52
:104D200019688A4288BF1A60142353431349CE1866
:104D300070688768A060E7607D608560C8586661BC
:104D40000130C8500E4B1B68DB6A9A4285BF0120B8
:104D50000C4B00201860F8BD0B4B59688D68E16161
:104D60002562686088601968A36201311960E9E70B
:104D7000D2630008A4110020C411002040120020BA
:104D8000A0160020B8110020FC110020234B2DE9B3
:104D9000F0411A68224B1AB101221A60BDE8F08175
:104DA000204E1A6033681B6B1A68B2F1A53F0BD115
:104DB0005A68B2F1A53F07D19A68B2F1A53F03D175
:104DC000DB68B3F1A53F04D0316830683431FEF7B9
:104DD0001FF9154F154D3C68DFF8548014236343C9
:104DE000E9585A1991B15168083349682B449942DE
:104DF00008BFD368516008BF5360142303FB0455F8
:104E00006B68DB6833603C603368C7E724B941F204
:104E100039214046FEF723FB013CDFE7A4110020C7
:104E2000B8110020A0160020C4110020401200205C
:104E3000D26300080122014B1A607047B8110020AC
:104E4000054B1B6833B1054B1868B0FA80F0400978
:104E50004000704701207047C0110020A4110020BD
:104E600070B5044608B9002070BD1C4B1B68834216
:104E700004D041F2F2711A48FEF7F1FAE36C23B95B
:104E800041F2F3711648FEF7EAFAE36CE16AA26CAC
:104E9000013B9142E364E6D0002BE4D1251D284676
:104EA00000F032FDA36CC3F13802A2610D4AE36247
:104EB00011688B424FF0140188BF13604B430A4ABC
:104EC000D01841688E68A160E66075608D60D15829
:104ED000606101310120D150C6E700BFA01600205B
:104EE000D2630008C411002040120020034B1B684D
:104EF0000360034B1B684360704700BFB411002080
:104F0000C811002070B50D46044620B941F2D431D5
:104F10001948FEF7A4FA25B941F2D5311648FEF733
:104F20009EFA00F0E5FA154B62681968144B186890
:104F300090F8560040B100221B6883F856200124E7
:104F400000F0E4FA204670BD2B68581C12D00D48C2
:104F500026680068864204D08A4202D800232B606B
:104F6000EDE7881A8342F9D95B1A134420462B6077
:104F7000FFF7BCFF0024E3E7D2630008C81100205C
:104F8000A0160020B4110020914208B541600061D4
:104F90000AD8D21A83699A420DD2084B011D1868AB
:104FA00000F090FC002008BD9A4201D2994202D242
:104FB000034B011DF3E70120F5E700BF00170020B8
:104FC000041700200E4B70B51B680546DB680E46C3
:104FD000DC68201D00F098FC94F828305A0709D5A9
:104FE00032462946204600F07BFD2046236ABDE874
:104FF0007040184723F0010384F82830F5E700BF1C
:1050000004170020F8B50546FFF78EFC0D4E044648
:105010003368834209D90C4F3B681A6852B90B4A6E
:10502000116813603960012300E0002320462B60E3
:105030003460F8BDDB684FF0FF311868FFF7C2FF3E
:10504000EAE700BFA4160020041700200017002084
:10505000F7B5114C00F04CFA2568BDB90F4F104E52
:10506000384600F021FC304600F01EFC0D4B1021AC
:105070001F600D4B0A201E600C4A0D4B0095FFF778
:1050800057F9206010B10B49FFF7E6F803B0BDE80F
:10509000F04000F03BBA00BFFC1600201C170020B7
:1050A0000817002004170020001700203F170020D9
:1050B000A8160020366400082DE9F041554F564EE1
:1050C00086B03B68D3F80080B8F1000F37D00024D9
:1050D000DB68D3F80080FFF71FFC02A8FFF792FF00
:1050E000029B0546002B3FD15CBB40452FD3FFF709
:1050F000DFFC29464046FFF765FF1022002102A889
:10510000FEF7D3FB0022306802A9FFF721F8002840
:10511000D7D0029B0498002B29DB049C63696BBBEE
:1051200001A8FFF76FFF029B0546013B082BE9D85A
:10513000DFE803F028284B526828284B520001244E
:10514000C9E7364B1B681C68B4FA84F4640922462C
:105150003068A8EB050100F072FCFFF7A9FC0028FD
:10516000CBD100F0D0FCC8E7FFF7A2FCC5E7039B5A
:1051700005999847029B002BC4DBCEE7201D00F069
:10518000C3FBCDE794F82830A16943F0010384F80C
:105190002830039B024619442046FFF7F5FE0028FD
:1051A000B0D094F8283059070AD5A36903992A4644
:1051B0002046194400F094FC2046236A9847A1E752
:1051C00023F0010384F82830F6E794F8283023F020
:1051D000010384F8283095E794F8283043F0010360
:1051E00084F82830039BA36123B940F2C1310C48F5
:1051F000FEF735F9A1692B462A4620462944FFF7D8
:10520000C3FE7FE794F828309A07E0D4204600F0E8
:10521000B5FC77E704170020FC16002000170020DB
:105220003B6400082DE9F3411F462C230193019BA9
:1052300080462C2B0D461646099C04D040F277116F
:105240001448FEF70CF9019BF4B1022384F82830CE
:1052500025B94FF4CE710F48FEF701F9FFF7F8FEBC
:10526000089BC4E90657C4F800802362201D00F0A3
:1052700026FB2EB194F8283043F0040384F828303C
:10528000204602B0BDE8F08140F27D110148FEF7F2
:10529000E6F8F5E73B64000810B588B0FFF7D8FEE4
:1052A000114B1B68CBB1002407AA06A905A8CDE9BC
:1052B0000544FEF7A3FE059B079A0293069B0B4944
:1052C000019328230A4800932346FFF7E7F9094B87
:1052D000186010B1012008B010BD074840F23B1122
:1052E000FEF7BDF80020F6E7FC1600209B640008DE
:1052F000B9500008F81600203B640008F0B50C46D1
:105300001746054685B020B940F2BF111048FEF798
:10531000A6F8104E3368A3B1052CCDE900470295DD
:105320000ADCFFF78DFD02280ED100230A9A694698
:105330003068FEF76FFE05E040F2C9110448FEF741
:105340008EF8002005B0F0BD00231A46EFE700BF3D
:105350003B640008FC16002010B54FF0807440E953
:105360000224184A4FF0123440F80C2C4FF003324C
:105370004FF0023C40E905244FF0013240F8203C58
:1053800040E9072C4FF010334FF011324FF0093441
:1053900040E90A324FF008334FF0073C40E90C3443
:1053A0004FF006334FF0053240E90E3C4FF0043326
:1053B00040E910326FF0020340F8443C40F8481DC9
:1053C00010BD00BF213000084FF0E022042313611C
:1053D00000234FF47A719361044B1B68B3FBF1F324
:1053E000013B536107231361704700BFE0170020A2
:1053F0004FF0E02313B5D3F8084D374BE26A9A42D9
:1054000004D04FF4C9613548FEF729F8A26B344B3C
:105410009A4204D040F249613048FEF720F8002358
:105420004FF07F4201934FF0E023C3F81C2DD3F8D7
:105430001C3D2C4A1B0E8DF803309DF8033003F001
:105440003003137023B940F267612448FEF707F870
:105450009DF80330DB4313F0300F04D040F26B6152
:105460001E48FDF7FCFF9DF8033013F0800F019BF1
:1054700029D1082B0CBF0023019B1B4A18BFC3F185
:1054800007031B0203F4E06313604FF0E0230024E2
:10549000D3F8202D42F47F02C3F8202DD3F8202D1D
:1054A00042F07F42C3F8202DC3F81C4DFFF78CFF5C
:1054B0000E4B1C6000F074F8FFF768FCFDF7B0FDC0
:1054C000204602B010BD013301939DF803305B000C
:1054D000DBB28DF80330C6E71D560008A364000850
:1054E000C1550008DF17002030170020F4170020F6
:1054F00008B500F025FB044A136801331360BFF3BD
:105500004F8FBFF36F8F08BDF417002010B5094C03
:10551000236823B940F2D6310748FDF7A0FF23687E
:10552000013B2360206818B9BDE8104000F013BBB0
:1055300010BD00BFF4170020A3640008836913F8AE
:10554000023C662B0FD14FF0E023D3F8882D42F4B4
:105550007002C3F8882DD3F8342F42F04042C3F8CC
:10556000342F00F007B840F26A410148FDF777BFD9
:10557000A3640008094A1168086806C881F30B880B
:10558000022181F31488203080F30988BFF36F8FE4
:105590004FF0000080F3118810470000A016002093
:1055A00006480068006880F3088862B661B6BFF3F9
:1055B0004F8FBFF36F8F66DF00BF000008ED00E084
:1055C000EFF309801EF0100F08BF20ED108AEFF3F3
:1055D0000B82734620E9FC0F0F4A116808604FF0F8
:1055E000300080F31188BFF34F8FBFF36F8FFFF749
:1055F000CDFB4FF0000080F31188074A116808685E
:10560000B0E8FC0F13F0100F08BFB0EC108A82F363
:105610000B8880F309881847A01600201EF0040F9D
:105620000CBFEFF30880EFF3098001490847000041
:105630003D5500084FF4004070474FF47A707047B2
:1056400010B962B6BFF36F8F7047EFF3108072B678
:10565000704780F31188BFF36F8F7047EFF31180AD
:10566000302383F31188704709B100F005B8222078
:1056700070470121FEF7C6BA70B506460D46FFF722
:10568000EDFF0446202E56D8DFE806F0111A551F0C
:10569000222555282B552E55313455373A3D554046
:1056A00055435552555555465549554C4F00FEF7F3
:1056B00017F9002628602046FFF7CBFF304670BD63
:1056C0004FF4C070FBF772FDF3E74FF42070F9E779
:1056D0004FF44070F6E74FF46070F3E74FF400705A
:1056E000F0E74FF48060EDE74FF44060EAE74FF4F5
:1056F000C060E7E74FF4F060E4E74FF4B060E1E743
:105700004FF4D060DEE74FF41060DBE74FF4E06069
:10571000D8E74FF4A060D5E74FF42860D2E74FF404
:105720008070CFE74FF42060CCE74FF44860C9E7C2
:105730004FF40860C6E700202126BBE70021084699
:10574000FEF738BA00F00101830748BF41F00201BB
:105750000020FEF7F5B938B5FFF780FF04460020BA
:10576000FEF718FA830700F0010548BF45F002056F
:1057700000F003010020FEF7FFF92846FEF7F6FAD5
:105780002046BDE83840FFF764BF10B5EFF305844D
:1057900014B10124204610BDFFF752FB0128F9D0B7
:1057A000EFF31083002BF4D1EFF31184003C18BF0A
:1057B0000124EFE708B54FF0E0231B69FFF740FB3A
:1057C000012803D0BDE8084000F0A8B908BD0023B7
:1057D0002DE9F04186B005460E4690460593FFF749
:1057E000D4FF00BBFDB1B8F1000F3DD0D8F8184090
:1057F0002CB1631E372B03D906B0BDE8F081182405
:10580000D8F80430DB0733D4D8F814306BB19A08D9
:10581000D8F80010D8E902704FB1572803D9D8F84A
:10582000100000B1B3B90598E6E7A022F0E7002820
:10583000F9D1D8F81030002BF5D105AB013C01931C
:1058400028463346009400F01DF901281CBF0023B0
:105850000593E8E7013CCDE901073346284600946B
:10586000FEF71CFF0590DEE741461824A022E4E77E
:105870000020C1E738B50546FFF787FF044650B959
:1058800065B12846FEF7B0FF04280AD02846FEF787
:1058900057FF204638BD6FF00500FBE76FF00300AF
:1058A000F8E76FF00200F5E74FF0FF3200F1080370
:1058B000C0E90223436003610023036070470023B3
:1058C0000361704730B50C68631C0AD103695A68DC
:1058D0004A6091608B60596003680861013303601E
:1058E00030BD00F10802134652681568A542FAD986
:1058F000EDE743689A684B608A605160996003687D
:1059000008610133036070470369D0E901128A60BE
:1059100051605968814208BF5A60002202611868CC
:1059200001381860704770B50446FFF7E1FD94F840
:10593000455004F124066DB2002D14DCFF2384F8D9
:105940004530FFF7E3FDFFF7D3FD94F8445004F131
:1059500010066DB2002D12DCFF2384F84430BDE840
:105960007040FFF7D3BD636A002BE7D03046FFF7E6
:10597000ABF908B1FFF75EFA013D6DB2DCE72369D0
:10598000002BE9D03046FFF79FF908B1FFF752FA34
:10599000013D6DB2DEE710B50446FFF7A9FDA46B2B
:1059A000FFF7B4FDB4FA84F0400910BD70B5164697
:1059B000026C0446856B42B906689EB98068FFF7A1
:1059C0004FFAA6600135A56370BD6EB94068FDF75A
:1059D00074FF6368226C1344A2686360934224BF1F
:1059E000236863600020EDE7C068FDF766FF226C66
:1059F000E36851429B1A2268E36093423EBFA3686A
:105A00005B18E360022EEDD10DB1013DEAE72846B7
:105A1000D8E703461A6C084610B46AB1DC68996886
:105A200014448C4228BF1968DC6028BFD960D9684B
:105A30005DF8044BFDF741BF5DF8044B704770B54E
:105A400004460D461646FFF753FD94F84430FF2BED
:105A500004BF002384F8443094F84530FF2B04BF82
:105A6000002384F84530FFF751FDA36B2BB9324674
:105A7000294604F12400FFF7F9F82046BDE87040FC
:105A8000FFF751BF2DE9F043074685B090008846E7
:105A90001646994600F066F80546F0B1582000F029
:105AA00061F80446B0B158220021FDF7FEFE0D9BBF
:105AB000256301930C9B324641463846009302947D
:105AC0004B46FEF7A3FD2046FEF714FD012005B06E
:105AD000BDE8F083284600F051F84FF0FF30F6E7BC
